:100000000C9434000C94B1000C94B1000C94B10029
:100010000C94B1000C94B1000C94B1000C94B1009C
:100020000C94B1000C94B1000C94B1000C94B1008C
:100030000C94B1000C94B1000C94B1000C94B1007C
:100040000C94B1000C94B1000C94B1000C94B1006C
:100050000C94B1000C94B1000C94B1000C94B1005C
:100060000C94B1000C94B10011241FBECFEFD8E066
:10007000DEBFCDBF0E9492000C94A000F894FFCF89
:0C0080000102030405060708090A000B32
:10008C0050E045C08FE085B925B1652F70E081E067
:10009C0090E0052E02C0880F991F0A94E2F7809514
:1000AC00822385B926E02A95F1F700C049B14C713D
:1000BC0080E02AC092E0980F242F30E0092E02C075
:1000CC00359527950A94E2F720FD1DC029B130E043
:1000DC0002C0359527959A95E2F720FD14C09B0137
:1000EC00220F331F620F731F9B01280F311DC90193
:1000FC00092E000CAA0B80589F4FAF4FFC01849126
:10010C00A7FD808108958F5F8330A0F25F5F54302C
:08011C0008F4B8CF8FEF08953D
:100124008FE084B987B91AB88FEF8BB90E94460063
:0C0134008F3FE1F3D9F30E94AB00F8CF3D
:10014000EC010E94B6000E94B500CE010E94B700EB
:06015000CE010E94B30085
:0C01560098B1907F8F70892B88B90895B4
:040162000C940000F9
:040166000E943E00B5
:02016A000895F6
:02016C000895F4
:02016E000895F2
:00000001FF
