:100000000C9434000C94D6000C94D6000C94D600BA
:100010000C94D6000C94D6000C94D6000C94D60008
:100020000C94D6000C94D6000C94D6000C94D600F8
:100030000C94D6000C94D6000C94D6000C94D600E8
:100040000C94D6000C94D6000C94D6000C94D600D8
:100050000C94D6000C94D6000C94D6000C94D600C8
:100060000C94D6000C94D60011241FBECFEFD8E01C
:10007000DEBFCDBF0E94AB000C94C500F894FFCF4B
:0C0080000102030405060708090A000B32
:10008C0050E05EC08FE085B925B1652F70E081E04E
:10009C0090E0052E02C0880F991F0A94E2F7809514
:1000AC00822385B921E22A95F1F7000049B14C7100
:1000BC0080E042C092E0980FE92F242F30E0092E07
:1000CC0002C0359527950A94E2F720FD34C0AFE4C1
:1000DC00B3EC1197F1F700C0000029B130E002C079
:1000EC00359527959A95E2F720FD25C006C0AFE41B
:1000FC00B3EC1197F1F700C0000029B130E00E2EDF
:10010C0002C0359527950A94E2F720FFF0CF9B01AA
:10011C00220F331F620F731F9B01280F311DC90162
:10012C00092E000CAA0B80589F4FAF4FFC018491F5
:10013C00A7FD808108958F5F833008F4BBCF5F5F8C
:0A014C00543008F49FCF8FEF0895A0
:100156008FE084B987B98AB1837E8AB98BB18C6105
:100166008BB90E9446008F3FE1F3D9F30E94D0007D
:100176002FE78AE196E0215080409040E1F700C0E9
:040186000000EFCFB7
:10018A00EC010E94DB000E94DA00CE010E94DC0032
:06019A00CE010E94D80016
:0C01A00098B1907F8F70892B88B908956A
:0401AC000C940000AF
:0401B0000E943E006B
:0201B4000895AC
:0201B6000895AA
:0201B8000895A8
:00000001FF
