:100000000C9434000C9497000C9497000C94970077
:100010000C9497000C9497000C9497000C94970004
:100020000C9497000C9497000C9497000C949700F4
:100030000C9497000C9497000C9497000C949700E4
:100040000C9497000C9497000C9497000C949700D4
:100050000C9497000C9497000C9497000C949700C4
:100060000C9497000C94970011241FBECFEFD8E09A
:10007000DEBFCDBF0E947F000C948C00F894FFCFB0
:0C0080000102030405060708090A000C31
:10008C0040E033C08FE085B925B1642F70E081E08A
:10009C0090E0042E02C0880F991F0A94E2F7809515
:1000AC00822385B920E01EC089B190E032E0320F86
:1000BC0002C0959587953A95E2F780FD12C0CB0169
:1000CC00880F991F860F971F820F911D092E000C08
:1000DC00AA0B80589F4FAF4FFC018491A7FD8081E4
:1000EC0008952F5F233000F34F5F443058F28FEFA9
:0200FC00089565
:1000FE008FE084B987B91AB88CE18BB90E9446009B
:0A010E008F3FE1F30E949900F9CF42
:10011800EC010E949E000E949D00CE010E949F005B
:06012800CE010E949B00C5
:04012E000C9400002D
:0401320088B90895EB
:040136000E943E00E5
:02013A00089526
:02013C00089524
:02013E00089522
:00000001FF
